{
  "contractName": "InsightMarketplace",
  "abi": [
    {
      "anonymous": false,
      "inputs": [
        {
          "indexed": false,
          "internalType": "uint256",
          "name": "id",
          "type": "uint256"
        },
        {
          "indexed": false,
          "internalType": "uint256",
          "name": "newCount",
          "type": "uint256"
        }
      ],
      "name": "AnalyticsUpdated",
      "type": "event"
    },
    {
      "anonymous": false,
      "inputs": [
        {
          "indexed": false,
          "internalType": "uint256",
          "name": "id",
          "type": "uint256"
        },
        {
          "indexed": false,
          "internalType": "string",
          "name": "title",
          "type": "string"
        },
        {
          "indexed": false,
          "internalType": "address",
          "name": "owner",
          "type": "address"
        },
        {
          "indexed": false,
          "internalType": "uint256",
          "name": "price",
          "type": "uint256"
        }
      ],
      "name": "PollCreated",
      "type": "event"
    },
    {
      "anonymous": false,
      "inputs": [
        {
          "indexed": false,
          "internalType": "uint256",
          "name": "id",
          "type": "uint256"
        },
        {
          "indexed": false,
          "internalType": "address",
          "name": "newOwner",
          "type": "address"
        }
      ],
      "name": "PollPurchased",
      "type": "event"
    },
    {
      "anonymous": false,
      "inputs": [
        {
          "indexed": false,
          "internalType": "uint256",
          "name": "id",
          "type": "uint256"
        },
        {
          "indexed": false,
          "internalType": "uint256",
          "name": "newPrice",
          "type": "uint256"
        }
      ],
      "name": "PollResold",
      "type": "event"
    },
    {
      "inputs": [
        {
          "internalType": "uint256",
          "name": "_pollId",
          "type": "uint256"
        }
      ],
      "name": "buyPoll",
      "outputs": [],
      "stateMutability": "payable",
      "type": "function"
    },
    {
      "inputs": [
        {
          "internalType": "string",
          "name": "_title",
          "type": "string"
        },
        {
          "internalType": "string",
          "name": "_description",
          "type": "string"
        },
        {
          "internalType": "string",
          "name": "_targetAudience",
          "type": "string"
        },
        {
          "internalType": "string",
          "name": "_publicLink",
          "type": "string"
        },
        {
          "internalType": "string",
          "name": "_pollHash",
          "type": "string"
        },
        {
          "internalType": "uint256",
          "name": "_price",
          "type": "uint256"
        }
      ],
      "name": "createPoll",
      "outputs": [],
      "stateMutability": "nonpayable",
      "type": "function"
    },
    {
      "inputs": [],
      "name": "getPolls",
      "outputs": [
        {
          "components": [
            {
              "internalType": "uint256",
              "name": "id",
              "type": "uint256"
            },
            {
              "internalType": "string",
              "name": "title",
              "type": "string"
            },
            {
              "internalType": "string",
              "name": "description",
              "type": "string"
            },
            {
              "internalType": "string",
              "name": "targetAudience",
              "type": "string"
            },
            {
              "internalType": "string",
              "name": "publicLink",
              "type": "string"
            },
            {
              "internalType": "string",
              "name": "pollHash",
              "type": "string"
            },
            {
              "internalType": "address payable",
              "name": "owner",
              "type": "address"
            },
            {
              "internalType": "uint256",
              "name": "price",
              "type": "uint256"
            },
            {
              "internalType": "bool",
              "name": "isForSale",
              "type": "bool"
            },
            {
              "internalType": "uint256",
              "name": "analyticsCount",
              "type": "uint256"
            }
          ],
          "internalType": "struct InsightMarketplace.Poll[]",
          "name": "",
          "type": "tuple[]"
        }
      ],
      "stateMutability": "view",
      "type": "function"
    },
    {
      "inputs": [],
      "name": "last_completed_migration",
      "outputs": [
        {
          "internalType": "uint256",
          "name": "",
          "type": "uint256"
        }
      ],
      "stateMutability": "view",
      "type": "function"
    },
    {
      "inputs": [],
      "name": "owner",
      "outputs": [
        {
          "internalType": "address",
          "name": "",
          "type": "address"
        }
      ],
      "stateMutability": "view",
      "type": "function"
    },
    {
      "inputs": [
        {
          "internalType": "uint256",
          "name": "",
          "type": "uint256"
        }
      ],
      "name": "polls",
      "outputs": [
        {
          "internalType": "uint256",
          "name": "id",
          "type": "uint256"
        },
        {
          "internalType": "string",
          "name": "title",
          "type": "string"
        },
        {
          "internalType": "string",
          "name": "description",
          "type": "string"
        },
        {
          "internalType": "string",
          "name": "targetAudience",
          "type": "string"
        },
        {
          "internalType": "string",
          "name": "publicLink",
          "type": "string"
        },
        {
          "internalType": "string",
          "name": "pollHash",
          "type": "string"
        },
        {
          "internalType": "address payable",
          "name": "owner",
          "type": "address"
        },
        {
          "internalType": "uint256",
          "name": "price",
          "type": "uint256"
        },
        {
          "internalType": "bool",
          "name": "isForSale",
          "type": "bool"
        },
        {
          "internalType": "uint256",
          "name": "analyticsCount",
          "type": "uint256"
        }
      ],
      "stateMutability": "view",
      "type": "function"
    },
    {
      "inputs": [
        {
          "internalType": "uint256",
          "name": "_pollId",
          "type": "uint256"
        },
        {
          "internalType": "uint256",
          "name": "_newPrice",
          "type": "uint256"
        }
      ],
      "name": "resellPoll",
      "outputs": [],
      "stateMutability": "nonpayable",
      "type": "function"
    },
    {
      "inputs": [
        {
          "internalType": "uint256",
          "name": "_pollId",
          "type": "uint256"
        },
        {
          "internalType": "uint256",
          "name": "_newCount",
          "type": "uint256"
        }
      ],
      "name": "updateAnalyticsCount",
      "outputs": [],
      "stateMutability": "nonpayable",
      "type": "function"
    }
  ],
  "bytecode": "0x6080604052336000806101000a81548173ffffffffffffffffffffffffffffffffffffffff021916908373ffffffffffffffffffffffffffffffffffffffff16021790555034801561005057600080fd5b50d3801561005d57600080fd5b50d2801561006a57600080fd5b506120838061007a6000396000f3fe60806040526004361061007b5760003560e01c80636be270541161004e5780636be27054146101695780638da5cb5b146101ac578063ac2f0074146101f1578063f18d3c96146102515761007b565b8063120fe89b1461008057806330a91d26146100c5578063445df0ac1461010857806359fabfde1461014d575b600080fd5b34801561008c57600080fd5b50d3801561009957600080fd5b50d280156100a657600080fd5b506100af610294565b6040516100bc9190611915565b60405180910390f35b3480156100d157600080fd5b50d380156100de57600080fd5b50d280156100eb57600080fd5b5061010660048036038101906101019190611525565b61065d565b005b34801561011457600080fd5b50d3801561012157600080fd5b50d2801561012e57600080fd5b50610137610814565b6040516101449190611a57565b60405180910390f35b610167600480360381019061016291906114f8565b61081a565b005b34801561017557600080fd5b50d3801561018257600080fd5b50d2801561018f57600080fd5b506101aa60048036038101906101a59190611525565b610aad565b005b3480156101b857600080fd5b50d380156101c557600080fd5b50d280156101d257600080fd5b506101db610c8f565b6040516101e891906118fa565b60405180910390f35b3480156101fd57600080fd5b50d3801561020a57600080fd5b50d2801561021757600080fd5b50610232600480360381019061022d91906114f8565b610cb3565b6040516102489a99989796959493929190611ae7565b60405180910390f35b34801561025d57600080fd5b50d3801561026a57600080fd5b50d2801561027757600080fd5b50610292600480360381019061028d91906113df565b610fec565b005b60606002805480602002602001604051908101604052809291908181526020016000905b8282101561065457838290600052602060002090600a020160405180610140016040529081600082015481526020016001820180546102f690611d5b565b80601f016020809104026020016040519081016040528092919081815260200182805461032290611d5b565b801561036f5780601f106103445761010080835404028352916020019161036f565b820191906000526020600020905b81548152906001019060200180831161035257829003601f168201915b5050505050815260200160028201805461038890611d5b565b80601f01602080910402602001604051908101604052809291908181526020018280546103b490611d5b565b80156104015780601f106103d657610100808354040283529160200191610401565b820191906000526020600020905b8154815290600101906020018083116103e457829003601f168201915b5050505050815260200160038201805461041a90611d5b565b80601f016020809104026020016040519081016040528092919081815260200182805461044690611d5b565b80156104935780601f1061046857610100808354040283529160200191610493565b820191906000526020600020905b81548152906001019060200180831161047657829003601f168201915b505050505081526020016004820180546104ac90611d5b565b80601f01602080910402602001604051908101604052809291908181526020018280546104d890611d5b565b80156105255780601f106104fa57610100808354040283529160200191610525565b820191906000526020600020905b81548152906001019060200180831161050857829003601f168201915b5050505050815260200160058201805461053e90611d5b565b80601f016020809104026020016040519081016040528092919081815260200182805461056a90611d5b565b80156105b75780601f1061058c576101008083540402835291602001916105b7565b820191906000526020600020905b81548152906001019060200180831161059a57829003601f168201915b505050505081526020016006820160009054906101000a900473ffffffffffffffffffffffffffffffffffffffff1673ffffffffffffffffffffffffffffffffffffffff1673ffffffffffffffffffffffffffffffffffffffff168152602001600782015481526020016008820160009054906101000a900460ff16151515158152602001600982015481525050815260200190600101906102b8565b50505050905090565b60028054905082106106a4576040517f08c379a000000000000000000000000000000000000000000000000000000000815260040161069b906119b7565b60405180910390fd5b600282815481106106b8576106b7611e1c565b5b90600052602060002090600a020160060160009054906101000a900473ffffffffffffffffffffffffffffffffffffffff1673ffffffffffffffffffffffffffffffffffffffff163373ffffffffffffffffffffffffffffffffffffffff16148061076e575060008054906101000a900473ffffffffffffffffffffffffffffffffffffffff1673ffffffffffffffffffffffffffffffffffffffff163373ffffffffffffffffffffffffffffffffffffffff16145b6107ad576040517f08c379a00000000000000000000000000000000000000000000000000000000081526004016107a4906119d7565b60405180910390fd5b80600283815481106107c2576107c1611e1c565b5b90600052602060002090600a0201600901819055507f9789c9d3602367f030d90b7cd003ef07a766c3fb09fbe6d2ddfefebdf353475b8282604051610808929190611ba6565b60405180910390a15050565b60015481565b600360009054906101000a900460ff161561086a576040517f08c379a000000000000000000000000000000000000000000000000000000000815260040161086190611a17565b60405180910390fd5b6001600360006101000a81548160ff02191690831515021790555060028054905081106108cc576040517f08c379a00000000000000000000000000000000000000000000000000000000081526004016108c3906119b7565b60405180910390fd5b6000600282815481106108e2576108e1611e1c565b5b90600052602060002090600a020190508060080160009054906101000a900460ff16610943576040517f08c379a000000000000000000000000000000000000000000000000000000000815260040161093a90611937565b60405180910390fd5b806007015434101561098a576040517f08c379a000000000000000000000000000000000000000000000000000000000815260040161098190611977565b60405180910390fd5b8060060160009054906101000a900473ffffffffffffffffffffffffffffffffffffffff1673ffffffffffffffffffffffffffffffffffffffff166108fc349081150290604051600060405180830381858888f193505050501580156109f4573d6000803e3d6000fd5b50338160060160006101000a81548173ffffffffffffffffffffffffffffffffffffffff021916908373ffffffffffffffffffffffffffffffffffffffff16021790555060008160080160006101000a81548160ff0219169083151502179055507f35dc00740c283c7eecb174fcd6f5c6e193ff72c1cd5d4f825b0b59f95eacbcd28233604051610a86929190611a72565b60405180910390a1506000600360006101000a81548160ff02191690831515021790555050565b6002805490508210610af4576040517f08c379a0000000000000000000000000000000000000000000000000000000008152600401610aeb906119b7565b60405180910390fd5b60028281548110610b0857610b07611e1c565b5b90600052602060002090600a020160060160009054906101000a900473ffffffffffffffffffffffffffffffffffffffff1673ffffffffffffffffffffffffffffffffffffffff163373ffffffffffffffffffffffffffffffffffffffff1614610ba7576040517f08c379a0000000000000000000000000000000000000000000000000000000008152600401610b9e90611957565b60405180910390fd5b60008111610bea576040517f08c379a0000000000000000000000000000000000000000000000000000000008152600401610be1906119f7565b60405180910390fd5b8060028381548110610bff57610bfe611e1c565b5b90600052602060002090600a020160070181905550600160028381548110610c2a57610c29611e1c565b5b90600052602060002090600a020160080160006101000a81548160ff0219169083151502179055507f1cd995657fbb1b84ad2ad316d8e3582184aa818ad17a1edff78ab6676990bad38282604051610c83929190611ba6565b60405180910390a15050565b60008054906101000a900473ffffffffffffffffffffffffffffffffffffffff1681565b60028181548110610cc357600080fd5b90600052602060002090600a0201600091509050806000015490806001018054610cec90611d5b565b80601f0160208091040260200160405190810160405280929190818152602001828054610d1890611d5b565b8015610d655780601f10610d3a57610100808354040283529160200191610d65565b820191906000526020600020905b815481529060010190602001808311610d4857829003601f168201915b505050505090806002018054610d7a90611d5b565b80601f0160208091040260200160405190810160405280929190818152602001828054610da690611d5b565b8015610df35780601f10610dc857610100808354040283529160200191610df3565b820191906000526020600020905b815481529060010190602001808311610dd657829003601f168201915b505050505090806003018054610e0890611d5b565b80601f0160208091040260200160405190810160405280929190818152602001828054610e3490611d5b565b8015610e815780601f10610e5657610100808354040283529160200191610e81565b820191906000526020600020905b815481529060010190602001808311610e6457829003601f168201915b505050505090806004018054610e9690611d5b565b80601f0160208091040260200160405190810160405280929190818152602001828054610ec290611d5b565b8015610f0f5780601f10610ee457610100808354040283529160200191610f0f565b820191906000526020600020905b815481529060010190602001808311610ef257829003601f168201915b505050505090806005018054610f2490611d5b565b80601f0160208091040260200160405190810160405280929190818152602001828054610f5090611d5b565b8015610f9d5780601f10610f7257610100808354040283529160200191610f9d565b820191906000526020600020905b815481529060010190602001808311610f8057829003601f168201915b5050505050908060060160009054906101000a900473ffffffffffffffffffffffffffffffffffffffff16908060070154908060080160009054906101000a900460ff1690806009015490508a565b6000865111611030576040517f08c379a000000000000000000000000000000000000000000000000000000000815260040161102790611a37565b60405180910390fd5b6000855111611074576040517f08c379a000000000000000000000000000000000000000000000000000000000815260040161106b90611997565b60405180910390fd5b600081116110b7576040517f08c379a00000000000000000000000000000000000000000000000000000000081526004016110ae906119f7565b60405180910390fd5b600260405180610140016040528060028054905081526020018881526020018781526020018681526020018581526020018481526020013373ffffffffffffffffffffffffffffffffffffffff168152602001838152602001600115158152602001600081525090806001815401808255809150506001900390600052602060002090600a020160009091909190915060008201518160000155602082015181600101908051906020019061116d9291906112b7565b50604082015181600201908051906020019061118a9291906112b7565b5060608201518160030190805190602001906111a79291906112b7565b5060808201518160040190805190602001906111c49291906112b7565b5060a08201518160050190805190602001906111e19291906112b7565b5060c08201518160060160006101000a81548173ffffffffffffffffffffffffffffffffffffffff021916908373ffffffffffffffffffffffffffffffffffffffff16021790555060e082015181600701556101008201518160080160006101000a81548160ff021916908315150217905550610120820151816009015550507f29f758df3e81eeecf732e452ff26f333ec14ae9aa2d08ae1ce7b5af71808026b60016002805490506112949190611c8b565b8733846040516112a79493929190611a9b565b60405180910390a1505050505050565b8280546112c390611d5b565b90600052602060002090601f0160209004810192826112e5576000855561132c565b82601f106112fe57805160ff191683800117855561132c565b8280016001018555821561132c579182015b8281111561132b578251825591602001919060010190611310565b5b509050611339919061133d565b5090565b5b8082111561135657600081600090555060010161133e565b5090565b600061136d61136884611bf4565b611bcf565b90508281526020810184848401111561138957611388611e7f565b5b611394848285611d19565b509392505050565b600082601f8301126113b1576113b0611e7a565b5b81356113c184826020860161135a565b91505092915050565b6000813590506113d981612036565b92915050565b60008060008060008060c087890312156113fc576113fb611e89565b5b600087013567ffffffffffffffff81111561141a57611419611e84565b5b61142689828a0161139c565b965050602087013567ffffffffffffffff81111561144757611446611e84565b5b61145389828a0161139c565b955050604087013567ffffffffffffffff81111561147457611473611e84565b5b61148089828a0161139c565b945050606087013567ffffffffffffffff8111156114a1576114a0611e84565b5b6114ad89828a0161139c565b935050608087013567ffffffffffffffff8111156114ce576114cd611e84565b5b6114da89828a0161139c565b92505060a06114eb89828a016113ca565b9150509295509295509295565b60006020828403121561150e5761150d611e89565b5b600061151c848285016113ca565b91505092915050565b6000806040838503121561153c5761153b611e89565b5b600061154a858286016113ca565b925050602061155b858286016113ca565b9150509250929050565b600061157183836117e6565b905092915050565b61158281611cd1565b82525050565b61159181611cd1565b82525050565b6115a081611cbf565b82525050565b60006115b182611c35565b6115bb8185611c58565b9350836020820285016115cd85611c25565b8060005b8581101561160957848403895281516115ea8582611565565b94506115f583611c4b565b925060208a019950506001810190506115d1565b50829750879550505050505092915050565b61162481611ce3565b82525050565b61163381611ce3565b82525050565b600061164482611c40565b61164e8185611c69565b935061165e818560208601611d28565b61166781611e8e565b840191505092915050565b600061167d82611c40565b6116878185611c7a565b9350611697818560208601611d28565b6116a081611e8e565b840191505092915050565b60006116b8601483611c7a565b91506116c382611e9f565b602082019050919050565b60006116db601e83611c7a565b91506116e682611ec8565b602082019050919050565b60006116fe601383611c7a565b915061170982611ef1565b602082019050919050565b6000611721602083611c7a565b915061172c82611f1a565b602082019050919050565b6000611744601383611c7a565b915061174f82611f43565b602082019050919050565b6000611767603183611c7a565b915061177282611f6c565b604082019050919050565b600061178a601c83611c7a565b915061179582611fbb565b602082019050919050565b60006117ad601a83611c7a565b91506117b882611fe4565b602082019050919050565b60006117d0601a83611c7a565b91506117db8261200d565b602082019050919050565b6000610140830160008301516117ff60008601826118dc565b50602083015184820360208601526118178282611639565b915050604083015184820360408601526118318282611639565b9150506060830151848203606086015261184b8282611639565b915050608083015184820360808601526118658282611639565b91505060a083015184820360a086015261187f8282611639565b91505060c083015161189460c0860182611579565b5060e08301516118a760e08601826118dc565b506101008301516118bc61010086018261161b565b506101208301516118d16101208601826118dc565b508091505092915050565b6118e581611d0f565b82525050565b6118f481611d0f565b82525050565b600060208201905061190f6000830184611597565b92915050565b6000602082019050818103600083015261192f81846115a6565b905092915050565b60006020820190508181036000830152611950816116ab565b9050919050565b60006020820190508181036000830152611970816116ce565b9050919050565b60006020820190508181036000830152611990816116f1565b9050919050565b600060208201905081810360008301526119b081611714565b9050919050565b600060208201905081810360008301526119d081611737565b9050919050565b600060208201905081810360008301526119f08161175a565b9050919050565b60006020820190508181036000830152611a108161177d565b9050919050565b60006020820190508181036000830152611a30816117a0565b9050919050565b60006020820190508181036000830152611a50816117c3565b9050919050565b6000602082019050611a6c60008301846118eb565b92915050565b6000604082019050611a8760008301856118eb565b611a946020830184611597565b9392505050565b6000608082019050611ab060008301876118eb565b8181036020830152611ac28186611672565b9050611ad16040830185611597565b611ade60608301846118eb565b95945050505050565b600061014082019050611afd600083018d6118eb565b8181036020830152611b0f818c611672565b90508181036040830152611b23818b611672565b90508181036060830152611b37818a611672565b90508181036080830152611b4b8189611672565b905081810360a0830152611b5f8188611672565b9050611b6e60c0830187611588565b611b7b60e08301866118eb565b611b8961010083018561162a565b611b976101208301846118eb565b9b9a5050505050505050505050565b6000604082019050611bbb60008301856118eb565b611bc860208301846118eb565b9392505050565b6000611bd9611bea565b9050611be58282611d8d565b919050565b6000604051905090565b600067ffffffffffffffff821115611c0f57611c0e611e4b565b5b611c1882611e8e565b9050602081019050919050565b6000819050602082019050919050565b600081519050919050565b600081519050919050565b6000602082019050919050565b600082825260208201905092915050565b600082825260208201905092915050565b600082825260208201905092915050565b6000611c9682611d0f565b9150611ca183611d0f565b925082821015611cb457611cb3611dbe565b5b828203905092915050565b6000611cca82611cef565b9050919050565b6000611cdc82611cef565b9050919050565b60008115159050919050565b600073ffffffffffffffffffffffffffffffffffffffff82169050919050565b6000819050919050565b82818337600083830152505050565b60005b83811015611d46578082015181840152602081019050611d2b565b83811115611d55576000848401525b50505050565b60006002820490506001821680611d7357607f821691505b60208210811415611d8757611d86611ded565b5b50919050565b611d9682611e8e565b810181811067ffffffffffffffff82111715611db557611db4611e4b565b5b80604052505050565b7f4e487b7100000000000000000000000000000000000000000000000000000000600052601160045260246000fd5b7f4e487b7100000000000000000000000000000000000000000000000000000000600052602260045260246000fd5b7f4e487b7100000000000000000000000000000000000000000000000000000000600052603260045260246000fd5b7f4e487b7100000000000000000000000000000000000000000000000000000000600052604160045260246000fd5b600080fd5b600080fd5b600080fd5b600080fd5b6000601f19601f8301169050919050565b7f506f6c6c206973206e6f7420666f722073616c65000000000000000000000000600082015250565b7f4f6e6c79206f776e65722063616e20726573656c6c2074686520706f6c6c0000600082015250565b7f4e6f7420656e6f756768205452582073656e7400000000000000000000000000600082015250565b7f506f6c6c206465736372697074696f6e2063616e6e6f7420626520656d707479600082015250565b7f506f6c6c20646f6573206e6f7420657869737400000000000000000000000000600082015250565b7f4f6e6c792074686520706f6c6c206f776e6572206f722061646d696e2063616e60008201527f2075706461746520616e616c7974696373000000000000000000000000000000602082015250565b7f5072696365206d7573742062652067726561746572207468616e203000000000600082015250565b7f5265656e7472616e637920677561726420697320616374697665000000000000600082015250565b7f506f6c6c207469746c652063616e6e6f7420626520656d707479000000000000600082015250565b61203f81611d0f565b811461204a57600080fd5b5056fea26474726f6e58221220e10567f73ef7b12064f30e068644cffee2a3e72fbc8d7cdfc2f55963ca2a4e6e64736f6c63430008060033",
  "source": "// SPDX-License-Identifier: MIT\r\npragma solidity >=0.4.22 <0.9.0;\r\n\r\ncontract InsightMarketplace {\r\n\r\n    address public owner = msg.sender;\r\n    uint public last_completed_migration;\r\n\r\n    modifier restricted() {\r\n        require(msg.sender == owner, \"This function is restricted to the contract's owner\");\r\n        _;\r\n    }\r\n\r\n    struct Poll {\r\n        uint256 id;\r\n        string title;\r\n        string description;\r\n        string targetAudience;\r\n        string publicLink;\r\n        string pollHash;  // Hash of question + options JSON\r\n        address payable owner;\r\n        uint256 price;\r\n        bool isForSale;\r\n        uint256 analyticsCount;  // Number of responses or views\r\n    }\r\n\r\n    // Array to store polls\r\n    Poll[] public polls;\r\n\r\n    // Event emitted when a poll is created\r\n    event PollCreated(uint256 id, string title, address owner, uint256 price);\r\n\r\n    // Event emitted when a poll is purchased\r\n    event PollPurchased(uint256 id, address newOwner);\r\n\r\n    // Event emitted when a poll is resold\r\n    event PollResold(uint256 id, uint256 newPrice);\r\n\r\n    // Event emitted when analytics count is updated\r\n    event AnalyticsUpdated(uint256 id, uint256 newCount);\r\n\r\n    // Reentrancy guard modifier (using Checks-Effects-Interactions pattern)\r\n    bool internal locked;\r\n\r\n    modifier noReentrancy() {\r\n        require(!locked, \"Reentrancy guard is active\");\r\n        locked = true;\r\n        _;\r\n        locked = false;\r\n    }\r\n\r\n    // Function to create a new poll\r\n    function createPoll(\r\n        string memory _title,\r\n        string memory _description,\r\n        string memory _targetAudience,\r\n        string memory _publicLink,\r\n        string memory _pollHash,\r\n        uint256 _price\r\n    ) public {\r\n        require(bytes(_title).length > 0, \"Poll title cannot be empty\");\r\n        require(bytes(_description).length > 0, \"Poll description cannot be empty\");\r\n        require(_price > 0, \"Price must be greater than 0\");\r\n\r\n        // Creating the poll and pushing to the array\r\n        polls.push(Poll({\r\n            id: polls.length,\r\n            title: _title,\r\n            description: _description,\r\n            targetAudience: _targetAudience,\r\n            publicLink: _publicLink,\r\n            pollHash: _pollHash,\r\n            owner: payable(msg.sender),\r\n            price: _price,\r\n            isForSale: true,\r\n            analyticsCount: 0  // Initialize analytics count to 0\r\n        }));\r\n\r\n        // Emit event after poll creation\r\n        emit PollCreated(polls.length - 1, _title, msg.sender, _price);\r\n    }\r\n\r\n    // Function to buy a poll\r\n    function buyPoll(uint256 _pollId) public payable noReentrancy {\r\n        require(_pollId < polls.length, \"Poll does not exist\");\r\n        Poll storage poll = polls[_pollId];\r\n        require(poll.isForSale, \"Poll is not for sale\");\r\n        require(msg.value >= poll.price, \"Not enough TRX sent\");\r\n\r\n        // Transfer ownership and funds\r\n        poll.owner.transfer(msg.value);\r\n        poll.owner = payable(msg.sender);\r\n        poll.isForSale = false;\r\n\r\n        // Emit the purchase event\r\n        emit PollPurchased(_pollId, msg.sender);\r\n    }\r\n\r\n    // Function to get all polls\r\n    function getPolls() public view returns (Poll[] memory) {\r\n        return polls;\r\n    }\r\n\r\n    // Function to resell a poll\r\n    function resellPoll(uint256 _pollId, uint256 _newPrice) public {\r\n        require(_pollId < polls.length, \"Poll does not exist\");\r\n        require(msg.sender == polls[_pollId].owner, \"Only owner can resell the poll\");\r\n        require(_newPrice > 0, \"Price must be greater than 0\");\r\n\r\n        // Set the new price and mark it for sale\r\n        polls[_pollId].price = _newPrice;\r\n        polls[_pollId].isForSale = true;\r\n\r\n        // Emit the resell event\r\n        emit PollResold(_pollId, _newPrice);\r\n    }\r\n\r\n    // Function to update analytics count (restricted to owner or authorized parties)\r\n    function updateAnalyticsCount(uint256 _pollId, uint256 _newCount) public {\r\n        require(_pollId < polls.length, \"Poll does not exist\");\r\n        require(msg.sender == polls[_pollId].owner || msg.sender == owner, \"Only the poll owner or admin can update analytics\");\r\n\r\n        // Update analytics count\r\n        polls[_pollId].analyticsCount = _newCount;\r\n\r\n        // Emit the analytics update event\r\n        emit AnalyticsUpdated(_pollId, _newCount);\r\n    }\r\n}\r\n",
  "sourcePath": "C:/Hasi/insightX/tronbox/contracts/InsightMarketPlace.sol",
  "compiler": {
    "name": "solc",
    "version": "0.8.6+commit.0e36fba0.mod.Emscripten.clang"
  },
  "schemaVersion": "2.0.1",
  "updatedAt": "2024-10-06T05:12:15.259Z"
}