{
  "contractName": "InsightMarketplace",
  "abi": [
    {
      "anonymous": false,
      "inputs": [
        {
          "indexed": false,
          "internalType": "uint256",
          "name": "id",
          "type": "uint256"
        },
        {
          "indexed": false,
          "internalType": "string",
          "name": "title",
          "type": "string"
        },
        {
          "indexed": false,
          "internalType": "address",
          "name": "owner",
          "type": "address"
        },
        {
          "indexed": false,
          "internalType": "uint256",
          "name": "price",
          "type": "uint256"
        }
      ],
      "name": "PollCreated",
      "type": "event"
    },
    {
      "anonymous": false,
      "inputs": [
        {
          "indexed": false,
          "internalType": "uint256",
          "name": "id",
          "type": "uint256"
        },
        {
          "indexed": false,
          "internalType": "address",
          "name": "newOwner",
          "type": "address"
        }
      ],
      "name": "PollPurchased",
      "type": "event"
    },
    {
      "inputs": [
        {
          "internalType": "uint256",
          "name": "_pollId",
          "type": "uint256"
        }
      ],
      "name": "buyPoll",
      "outputs": [],
      "stateMutability": "payable",
      "type": "function"
    },
    {
      "inputs": [
        {
          "internalType": "string",
          "name": "_title",
          "type": "string"
        },
        {
          "internalType": "string",
          "name": "_description",
          "type": "string"
        },
        {
          "internalType": "string",
          "name": "_targetAudience",
          "type": "string"
        },
        {
          "internalType": "string",
          "name": "_publicLink",
          "type": "string"
        },
        {
          "internalType": "string",
          "name": "_pollHash",
          "type": "string"
        },
        {
          "internalType": "uint256",
          "name": "_price",
          "type": "uint256"
        }
      ],
      "name": "createPoll",
      "outputs": [],
      "stateMutability": "nonpayable",
      "type": "function"
    },
    {
      "inputs": [],
      "name": "getPolls",
      "outputs": [
        {
          "components": [
            {
              "internalType": "uint256",
              "name": "id",
              "type": "uint256"
            },
            {
              "internalType": "string",
              "name": "title",
              "type": "string"
            },
            {
              "internalType": "string",
              "name": "description",
              "type": "string"
            },
            {
              "internalType": "string",
              "name": "targetAudience",
              "type": "string"
            },
            {
              "internalType": "string",
              "name": "publicLink",
              "type": "string"
            },
            {
              "internalType": "string",
              "name": "pollHash",
              "type": "string"
            },
            {
              "internalType": "address payable",
              "name": "owner",
              "type": "address"
            },
            {
              "internalType": "uint256",
              "name": "price",
              "type": "uint256"
            },
            {
              "internalType": "bool",
              "name": "isForSale",
              "type": "bool"
            },
            {
              "internalType": "uint256",
              "name": "analyticsCount",
              "type": "uint256"
            }
          ],
          "internalType": "struct InsightMarketplace.Poll[]",
          "name": "",
          "type": "tuple[]"
        }
      ],
      "stateMutability": "view",
      "type": "function"
    },
    {
      "inputs": [
        {
          "internalType": "uint256",
          "name": "",
          "type": "uint256"
        }
      ],
      "name": "polls",
      "outputs": [
        {
          "internalType": "uint256",
          "name": "id",
          "type": "uint256"
        },
        {
          "internalType": "string",
          "name": "title",
          "type": "string"
        },
        {
          "internalType": "string",
          "name": "description",
          "type": "string"
        },
        {
          "internalType": "string",
          "name": "targetAudience",
          "type": "string"
        },
        {
          "internalType": "string",
          "name": "publicLink",
          "type": "string"
        },
        {
          "internalType": "string",
          "name": "pollHash",
          "type": "string"
        },
        {
          "internalType": "address payable",
          "name": "owner",
          "type": "address"
        },
        {
          "internalType": "uint256",
          "name": "price",
          "type": "uint256"
        },
        {
          "internalType": "bool",
          "name": "isForSale",
          "type": "bool"
        },
        {
          "internalType": "uint256",
          "name": "analyticsCount",
          "type": "uint256"
        }
      ],
      "stateMutability": "view",
      "type": "function"
    },
    {
      "inputs": [
        {
          "internalType": "uint256",
          "name": "_pollId",
          "type": "uint256"
        },
        {
          "internalType": "uint256",
          "name": "_newPrice",
          "type": "uint256"
        }
      ],
      "name": "resellPoll",
      "outputs": [],
      "stateMutability": "nonpayable",
      "type": "function"
    },
    {
      "inputs": [
        {
          "internalType": "uint256",
          "name": "_pollId",
          "type": "uint256"
        },
        {
          "internalType": "uint256",
          "name": "_newCount",
          "type": "uint256"
        }
      ],
      "name": "updateAnalyticsCount",
      "outputs": [],
      "stateMutability": "nonpayable",
      "type": "function"
    }
  ],
  "bytecode": "0x608060405234801561000f575f80fd5b50d3801561001b575f80fd5b50d28015610027575f80fd5b50611f10806100355f395ff3fe608060405260043610610054575f3560e01c8063120fe89b1461005857806330a91d261461009a57806359fabfde146100da5780636be27054146100f6578063ac2f007414610136578063f18d3c9614610193575b5f80fd5b348015610063575f80fd5b50d3801561006f575f80fd5b50d2801561007b575f80fd5b506100846101d3565b60405161009191906114b4565b60405180910390f35b3480156100a5575f80fd5b50d380156100b1575f80fd5b50d280156100bd575f80fd5b506100d860048036038101906100d3919061150f565b61058b565b005b6100f460048036038101906100ef919061154d565b6105fc565b005b348015610101575f80fd5b50d3801561010d575f80fd5b50d28015610119575f80fd5b50610134600480360381019061012f919061150f565b610b76565b005b348015610141575f80fd5b50d3801561014d575f80fd5b50d28015610159575f80fd5b50610174600480360381019061016f919061154d565b610cd0565b60405161018a9a999897969594939291906115ed565b60405180910390f35b34801561019e575f80fd5b50d380156101aa575f80fd5b50d280156101b6575f80fd5b506101d160048036038101906101cc91906117d6565b610ff7565b005b60605f805480602002602001604051908101604052809291908181526020015f905b82821015610582578382905f5260205f2090600a0201604051806101400160405290815f820154815260200160018201805461023090611918565b80601f016020809104026020016040519081016040528092919081815260200182805461025c90611918565b80156102a75780601f1061027e576101008083540402835291602001916102a7565b820191905f5260205f20905b81548152906001019060200180831161028a57829003601f168201915b505050505081526020016002820180546102c090611918565b80601f01602080910402602001604051908101604052809291908181526020018280546102ec90611918565b80156103375780601f1061030e57610100808354040283529160200191610337565b820191905f5260205f20905b81548152906001019060200180831161031a57829003601f168201915b5050505050815260200160038201805461035090611918565b80601f016020809104026020016040519081016040528092919081815260200182805461037c90611918565b80156103c75780601f1061039e576101008083540402835291602001916103c7565b820191905f5260205f20905b8154815290600101906020018083116103aa57829003601f168201915b505050505081526020016004820180546103e090611918565b80601f016020809104026020016040519081016040528092919081815260200182805461040c90611918565b80156104575780601f1061042e57610100808354040283529160200191610457565b820191905f5260205f20905b81548152906001019060200180831161043a57829003601f168201915b5050505050815260200160058201805461047090611918565b80601f016020809104026020016040519081016040528092919081815260200182805461049c90611918565b80156104e75780601f106104be576101008083540402835291602001916104e7565b820191905f5260205f20905b8154815290600101906020018083116104ca57829003601f168201915b50505050508152602001600682015f9054906101000a900473ffffffffffffffffffffffffffffffffffffffff1673ffffffffffffffffffffffffffffffffffffffff1673ffffffffffffffffffffffffffffffffffffffff16815260200160078201548152602001600882015f9054906101000a900460ff16151515158152602001600982015481525050815260200190600101906101f5565b50505050905090565b5f8054905082106105d1576040517f08c379a00000000000000000000000000000000000000000000000000000000081526004016105c890611992565b60405180910390fd5b805f83815481106105e5576105e46119b0565b5b905f5260205f2090600a0201600901819055505050565b5f805490508110610642576040517f08c379a000000000000000000000000000000000000000000000000000000000815260040161063990611992565b60405180910390fd5b5f808281548110610656576106556119b0565b5b905f5260205f2090600a0201604051806101400160405290815f820154815260200160018201805461068790611918565b80601f01602080910402602001604051908101604052809291908181526020018280546106b390611918565b80156106fe5780601f106106d5576101008083540402835291602001916106fe565b820191905f5260205f20905b8154815290600101906020018083116106e157829003601f168201915b5050505050815260200160028201805461071790611918565b80601f016020809104026020016040519081016040528092919081815260200182805461074390611918565b801561078e5780601f106107655761010080835404028352916020019161078e565b820191905f5260205f20905b81548152906001019060200180831161077157829003601f168201915b505050505081526020016003820180546107a790611918565b80601f01602080910402602001604051908101604052809291908181526020018280546107d390611918565b801561081e5780601f106107f55761010080835404028352916020019161081e565b820191905f5260205f20905b81548152906001019060200180831161080157829003601f168201915b5050505050815260200160048201805461083790611918565b80601f016020809104026020016040519081016040528092919081815260200182805461086390611918565b80156108ae5780601f10610885576101008083540402835291602001916108ae565b820191905f5260205f20905b81548152906001019060200180831161089157829003601f168201915b505050505081526020016005820180546108c790611918565b80601f01602080910402602001604051908101604052809291908181526020018280546108f390611918565b801561093e5780601f106109155761010080835404028352916020019161093e565b820191905f5260205f20905b81548152906001019060200180831161092157829003601f168201915b50505050508152602001600682015f9054906101000a900473ffffffffffffffffffffffffffffffffffffffff1673ffffffffffffffffffffffffffffffffffffffff1673ffffffffffffffffffffffffffffffffffffffff16815260200160078201548152602001600882015f9054906101000a900460ff161515151581526020016009820154815250509050806101000151610a11576040517f08c379a0000000000000000000000000000000000000000000000000000000008152600401610a0890611a27565b60405180910390fd5b8060e00151341015610a58576040517f08c379a0000000000000000000000000000000000000000000000000000000008152600401610a4f90611a8f565b60405180910390fd5b8060c0015173ffffffffffffffffffffffffffffffffffffffff166108fc3490811502906040515f60405180830381858888f19350505050158015610a9f573d5f803e3d5ffd5b50335f8381548110610ab457610ab36119b0565b5b905f5260205f2090600a02016006015f6101000a81548173ffffffffffffffffffffffffffffffffffffffff021916908373ffffffffffffffffffffffffffffffffffffffff1602179055505f808381548110610b1457610b136119b0565b5b905f5260205f2090600a02016008015f6101000a81548160ff0219169083151502179055507f35dc00740c283c7eecb174fcd6f5c6e193ff72c1cd5d4f825b0b59f95eacbcd28233604051610b6a929190611acd565b60405180910390a15050565b5f805490508210610bbc576040517f08c379a0000000000000000000000000000000000000000000000000000000008152600401610bb390611992565b60405180910390fd5b5f8281548110610bcf57610bce6119b0565b5b905f5260205f2090600a02016006015f9054906101000a900473ffffffffffffffffffffffffffffffffffffffff1673ffffffffffffffffffffffffffffffffffffffff163373ffffffffffffffffffffffffffffffffffffffff1614610c6b576040517f08c379a0000000000000000000000000000000000000000000000000000000008152600401610c6290611b3e565b60405180910390fd5b805f8381548110610c7f57610c7e6119b0565b5b905f5260205f2090600a02016007018190555060015f8381548110610ca757610ca66119b0565b5b905f5260205f2090600a02016008015f6101000a81548160ff0219169083151502179055505050565b5f8181548110610cde575f80fd5b905f5260205f2090600a02015f91509050805f015490806001018054610d0390611918565b80601f0160208091040260200160405190810160405280929190818152602001828054610d2f90611918565b8015610d7a5780601f10610d5157610100808354040283529160200191610d7a565b820191905f5260205f20905b815481529060010190602001808311610d5d57829003601f168201915b505050505090806002018054610d8f90611918565b80601f0160208091040260200160405190810160405280929190818152602001828054610dbb90611918565b8015610e065780601f10610ddd57610100808354040283529160200191610e06565b820191905f5260205f20905b815481529060010190602001808311610de957829003601f168201915b505050505090806003018054610e1b90611918565b80601f0160208091040260200160405190810160405280929190818152602001828054610e4790611918565b8015610e925780601f10610e6957610100808354040283529160200191610e92565b820191905f5260205f20905b815481529060010190602001808311610e7557829003601f168201915b505050505090806004018054610ea790611918565b80601f0160208091040260200160405190810160405280929190818152602001828054610ed390611918565b8015610f1e5780601f10610ef557610100808354040283529160200191610f1e565b820191905f5260205f20905b815481529060010190602001808311610f0157829003601f168201915b505050505090806005018054610f3390611918565b80601f0160208091040260200160405190810160405280929190818152602001828054610f5f90611918565b8015610faa5780601f10610f8157610100808354040283529160200191610faa565b820191905f5260205f20905b815481529060010190602001808311610f8d57829003601f168201915b505050505090806006015f9054906101000a900473ffffffffffffffffffffffffffffffffffffffff1690806007015490806008015f9054906101000a900460ff1690806009015490508a565b5f8111611039576040517f08c379a000000000000000000000000000000000000000000000000000000000815260040161103090611ba6565b60405180910390fd5b5f6040518061014001604052805f8054905081526020018881526020018781526020018681526020018581526020018481526020013373ffffffffffffffffffffffffffffffffffffffff1681526020018381526020016001151581526020015f815250908060018154018082558091505060019003905f5260205f2090600a02015f909190919091505f820151815f015560208201518160010190816110e09190611d61565b5060408201518160020190816110f69190611d61565b50606082015181600301908161110c9190611d61565b5060808201518160040190816111229190611d61565b5060a08201518160050190816111389190611d61565b5060c0820151816006015f6101000a81548173ffffffffffffffffffffffffffffffffffffffff021916908373ffffffffffffffffffffffffffffffffffffffff16021790555060e08201518160070155610100820151816008015f6101000a81548160ff021916908315150217905550610120820151816009015550507f29f758df3e81eeecf732e452ff26f333ec14ae9aa2d08ae1ce7b5af71808026b60015f805490506111e89190611e5d565b8733846040516111fb9493929190611e90565b60405180910390a1505050505050565b5f81519050919050565b5f82825260208201905092915050565b5f819050602082019050919050565b5f819050919050565b61124681611234565b82525050565b5f81519050919050565b5f82825260208201905092915050565b5f5b83811015611283578082015181840152602081019050611268565b5f8484015250505050565b5f601f19601f8301169050919050565b5f6112a88261124c565b6112b28185611256565b93506112c2818560208601611266565b6112cb8161128e565b840191505092915050565b5f73ffffffffffffffffffffffffffffffffffffffff82169050919050565b5f6112ff826112d6565b9050919050565b61130f816112f5565b82525050565b5f8115159050919050565b61132981611315565b82525050565b5f61014083015f8301516113455f86018261123d565b506020830151848203602086015261135d828261129e565b91505060408301518482036040860152611377828261129e565b91505060608301518482036060860152611391828261129e565b915050608083015184820360808601526113ab828261129e565b91505060a083015184820360a08601526113c5828261129e565b91505060c08301516113da60c0860182611306565b5060e08301516113ed60e086018261123d565b50610100830151611402610100860182611320565b5061012083015161141761012086018261123d565b508091505092915050565b5f61142d838361132f565b905092915050565b5f602082019050919050565b5f61144b8261120b565b6114558185611215565b93508360208202850161146785611225565b805f5b858110156114a257848403895281516114838582611422565b945061148e83611435565b925060208a0199505060018101905061146a565b50829750879550505050505092915050565b5f6020820190508181035f8301526114cc8184611441565b905092915050565b5f604051905090565b5f80fd5b5f80fd5b6114ee81611234565b81146114f8575f80fd5b50565b5f81359050611509816114e5565b92915050565b5f8060408385031215611525576115246114dd565b5b5f611532858286016114fb565b9250506020611543858286016114fb565b9150509250929050565b5f60208284031215611562576115616114dd565b5b5f61156f848285016114fb565b91505092915050565b61158181611234565b82525050565b5f82825260208201905092915050565b5f6115a18261124c565b6115ab8185611587565b93506115bb818560208601611266565b6115c48161128e565b840191505092915050565b6115d8816112f5565b82525050565b6115e781611315565b82525050565b5f610140820190506116015f83018d611578565b8181036020830152611613818c611597565b90508181036040830152611627818b611597565b9050818103606083015261163b818a611597565b9050818103608083015261164f8189611597565b905081810360a08301526116638188611597565b905061167260c08301876115cf565b61167f60e0830186611578565b61168d6101008301856115de565b61169b610120830184611578565b9b9a5050505050505050505050565b5f80fd5b5f80fd5b7f4e487b71000000000000000000000000000000000000000000000000000000005f52604160045260245ffd5b6116e88261128e565b810181811067ffffffffffffffff82111715611707576117066116b2565b5b80604052505050565b5f6117196114d4565b905061172582826116df565b919050565b5f67ffffffffffffffff821115611744576117436116b2565b5b61174d8261128e565b9050602081019050919050565b828183375f83830152505050565b5f61177a6117758461172a565b611710565b905082815260208101848484011115611796576117956116ae565b5b6117a184828561175a565b509392505050565b5f82601f8301126117bd576117bc6116aa565b5b81356117cd848260208601611768565b91505092915050565b5f805f805f8060c087890312156117f0576117ef6114dd565b5b5f87013567ffffffffffffffff81111561180d5761180c6114e1565b5b61181989828a016117a9565b965050602087013567ffffffffffffffff81111561183a576118396114e1565b5b61184689828a016117a9565b955050604087013567ffffffffffffffff811115611867576118666114e1565b5b61187389828a016117a9565b945050606087013567ffffffffffffffff811115611894576118936114e1565b5b6118a089828a016117a9565b935050608087013567ffffffffffffffff8111156118c1576118c06114e1565b5b6118cd89828a016117a9565b92505060a06118de89828a016114fb565b9150509295509295509295565b7f4e487b71000000000000000000000000000000000000000000000000000000005f52602260045260245ffd5b5f600282049050600182168061192f57607f821691505b602082108103611942576119416118eb565b5b50919050565b7f506f6c6c20646f6573206e6f74206578697374000000000000000000000000005f82015250565b5f61197c601383611587565b915061198782611948565b602082019050919050565b5f6020820190508181035f8301526119a981611970565b9050919050565b7f4e487b71000000000000000000000000000000000000000000000000000000005f52603260045260245ffd5b7f506f6c6c206973206e6f7420666f722073616c650000000000000000000000005f82015250565b5f611a11601483611587565b9150611a1c826119dd565b602082019050919050565b5f6020820190508181035f830152611a3e81611a05565b9050919050565b7f4e6f7420656e6f756768205452582073656e74000000000000000000000000005f82015250565b5f611a79601383611587565b9150611a8482611a45565b602082019050919050565b5f6020820190508181035f830152611aa681611a6d565b9050919050565b5f611ab7826112d6565b9050919050565b611ac781611aad565b82525050565b5f604082019050611ae05f830185611578565b611aed6020830184611abe565b9392505050565b7f4f6e6c79206f776e65722063616e20726573656c6c2074686520706f6c6c00005f82015250565b5f611b28601e83611587565b9150611b3382611af4565b602082019050919050565b5f6020820190508181035f830152611b5581611b1c565b9050919050565b7f5072696365206d7573742062652067726561746572207468616e2030000000005f82015250565b5f611b90601c83611587565b9150611b9b82611b5c565b602082019050919050565b5f6020820190508181035f830152611bbd81611b84565b9050919050565b5f819050815f5260205f209050919050565b5f6020601f8301049050919050565b5f82821b905092915050565b5f60088302611c207fffffffffffffffffffffffffffffffffffffffffffffffffffffffffffffffff82611be5565b611c2a8683611be5565b95508019841693508086168417925050509392505050565b5f819050919050565b5f611c65611c60611c5b84611234565b611c42565b611234565b9050919050565b5f819050919050565b611c7e83611c4b565b611c92611c8a82611c6c565b848454611bf1565b825550505050565b5f90565b611ca6611c9a565b611cb1818484611c75565b505050565b5b81811015611cd457611cc95f82611c9e565b600181019050611cb7565b5050565b601f821115611d1957611cea81611bc4565b611cf384611bd6565b81016020851015611d02578190505b611d16611d0e85611bd6565b830182611cb6565b50505b505050565b5f82821c905092915050565b5f611d395f1984600802611d1e565b1980831691505092915050565b5f611d518383611d2a565b9150826002028217905092915050565b611d6a8261124c565b67ffffffffffffffff811115611d8357611d826116b2565b5b611d8d8254611918565b611d98828285611cd8565b5f60209050601f831160018114611dc9575f8415611db7578287015190505b611dc18582611d46565b865550611e28565b601f198416611dd786611bc4565b5f5b82811015611dfe57848901518255600182019150602085019450602081019050611dd9565b86831015611e1b5784890151611e17601f891682611d2a565b8355505b6001600288020188555050505b505050505050565b7f4e487b71000000000000000000000000000000000000000000000000000000005f52601160045260245ffd5b5f611e6782611234565b9150611e7283611234565b9250828203905081811115611e8a57611e89611e30565b5b92915050565b5f608082019050611ea35f830187611578565b8181036020830152611eb58186611597565b9050611ec46040830185611abe565b611ed16060830184611578565b9594505050505056fea26474726f6e582212201df94a7d329b6e303d88c882c891a766a08a0390c26026420b45a1a360c4296f64736f6c63430008140033",
  "source": "// SPDX-License-Identifier: MIT\r\npragma solidity  >=0.4.22 <0.9.0;\r\n\r\ncontract InsightMarketplace {\r\n    struct Poll {\r\n        uint256 id;\r\n        string title;\r\n        string description;\r\n        string targetAudience;\r\n        string publicLink;\r\n        string pollHash;  // Hash of question + options JSON\r\n        address payable owner;\r\n        uint256 price;\r\n        bool isForSale;\r\n        uint256 analyticsCount;  // Number of responses or views\r\n    }\r\n\r\n    // Array to store polls\r\n    Poll[] public polls;\r\n\r\n    // Event emitted when a poll is created\r\n    event PollCreated(uint256 id, string title, address owner, uint256 price);\r\n\r\n    // Event emitted when a poll is purchased\r\n    event PollPurchased(uint256 id, address newOwner);\r\n\r\n    // Function to create a new poll\r\n    function createPoll(\r\n        string memory _title,\r\n        string memory _description,\r\n        string memory _targetAudience,\r\n        string memory _publicLink,\r\n        string memory _pollHash,\r\n        uint256 _price\r\n    ) public {\r\n        require(_price > 0, \"Price must be greater than 0\");\r\n\r\n        // Creating the poll and pushing to the array\r\n        polls.push(Poll({\r\n            id: polls.length,\r\n            title: _title,\r\n            description: _description,\r\n            targetAudience: _targetAudience,\r\n            publicLink: _publicLink,\r\n            pollHash: _pollHash,\r\n            owner: payable(msg.sender),\r\n            price: _price,\r\n            isForSale: true,\r\n            analyticsCount: 0  // Initialize analytics count to 0\r\n        }));\r\n\r\n        // Emit event after poll creation\r\n        emit PollCreated(polls.length - 1, _title, msg.sender, _price);\r\n    }\r\n\r\n    // Function to buy a poll\r\n    function buyPoll(uint256 _pollId) public payable {\r\n        require(_pollId < polls.length, \"Poll does not exist\");\r\n        Poll memory poll = polls[_pollId];\r\n        require(poll.isForSale, \"Poll is not for sale\");\r\n        require(msg.value >= poll.price, \"Not enough TRX sent\");\r\n\r\n        // Transfer ownership\r\n        poll.owner.transfer(msg.value);\r\n        polls[_pollId].owner = payable(msg.sender);\r\n        polls[_pollId].isForSale = false;\r\n\r\n        // Emit the purchase event\r\n        emit PollPurchased(_pollId, msg.sender);\r\n    }\r\n\r\n    // Function to get all polls\r\n    function getPolls() public view returns (Poll[] memory) {\r\n        return polls;\r\n    }\r\n\r\n    // Function to resell a poll\r\n    function resellPoll(uint256 _pollId, uint256 _newPrice) public {\r\n        require(_pollId < polls.length, \"Poll does not exist\");\r\n        require(msg.sender == polls[_pollId].owner, \"Only owner can resell the poll\");\r\n\r\n        // Set the new price and mark it for sale\r\n        polls[_pollId].price = _newPrice;\r\n        polls[_pollId].isForSale = true;\r\n    }\r\n\r\n    // Function to update analytics count (can be called off-chain via web3 integration)\r\n    function updateAnalyticsCount(uint256 _pollId, uint256 _newCount) public {\r\n        require(_pollId < polls.length, \"Poll does not exist\");\r\n        polls[_pollId].analyticsCount = _newCount;\r\n    }\r\n}\r\n",
  "sourcePath": "C:/Hasi/insightX/tronbox/contracts/InsightMarketPlace.sol",
  "compiler": {
    "name": "solc",
    "version": "0.8.20+commit.5f1834bc.Emscripten.clang"
  },
  "schemaVersion": "2.0.1",
  "updatedAt": "2024-10-04T16:34:21.400Z"
}