{
  "contractName": "InsightMarketplace",
  "abi": [
    {
      "anonymous": false,
      "inputs": [
        {
          "indexed": false,
          "internalType": "uint256",
          "name": "id",
          "type": "uint256"
        },
        {
          "indexed": false,
          "internalType": "uint256",
          "name": "newCount",
          "type": "uint256"
        }
      ],
      "name": "AnalyticsUpdated",
      "type": "event"
    },
    {
      "anonymous": false,
      "inputs": [
        {
          "indexed": false,
          "internalType": "uint256",
          "name": "id",
          "type": "uint256"
        },
        {
          "indexed": false,
          "internalType": "string",
          "name": "pollHash",
          "type": "string"
        },
        {
          "indexed": false,
          "internalType": "address",
          "name": "owner",
          "type": "address"
        },
        {
          "indexed": false,
          "internalType": "uint256",
          "name": "price",
          "type": "uint256"
        }
      ],
      "name": "PollCreated",
      "type": "event"
    },
    {
      "anonymous": false,
      "inputs": [
        {
          "indexed": false,
          "internalType": "uint256",
          "name": "id",
          "type": "uint256"
        },
        {
          "indexed": false,
          "internalType": "address",
          "name": "newOwner",
          "type": "address"
        }
      ],
      "name": "PollPurchased",
      "type": "event"
    },
    {
      "anonymous": false,
      "inputs": [
        {
          "indexed": false,
          "internalType": "uint256",
          "name": "id",
          "type": "uint256"
        },
        {
          "indexed": false,
          "internalType": "uint256",
          "name": "newPrice",
          "type": "uint256"
        }
      ],
      "name": "PollResold",
      "type": "event"
    },
    {
      "inputs": [
        {
          "internalType": "uint256",
          "name": "_pollId",
          "type": "uint256"
        }
      ],
      "name": "buyPoll",
      "outputs": [],
      "stateMutability": "payable",
      "type": "function"
    },
    {
      "inputs": [
        {
          "internalType": "string",
          "name": "_pollHash",
          "type": "string"
        },
        {
          "internalType": "uint256",
          "name": "_price",
          "type": "uint256"
        }
      ],
      "name": "createPoll",
      "outputs": [],
      "stateMutability": "nonpayable",
      "type": "function"
    },
    {
      "inputs": [
        {
          "internalType": "uint256",
          "name": "_pollId",
          "type": "uint256"
        }
      ],
      "name": "getPoll",
      "outputs": [
        {
          "internalType": "uint256",
          "name": "id",
          "type": "uint256"
        },
        {
          "internalType": "string",
          "name": "pollHash",
          "type": "string"
        },
        {
          "internalType": "address",
          "name": "pollOwner",
          "type": "address"
        },
        {
          "internalType": "uint256",
          "name": "price",
          "type": "uint256"
        },
        {
          "internalType": "bool",
          "name": "isForSale",
          "type": "bool"
        },
        {
          "internalType": "uint256",
          "name": "analyticsCount",
          "type": "uint256"
        }
      ],
      "stateMutability": "view",
      "type": "function"
    },
    {
      "inputs": [],
      "name": "getPollCount",
      "outputs": [
        {
          "internalType": "uint256",
          "name": "",
          "type": "uint256"
        }
      ],
      "stateMutability": "view",
      "type": "function"
    },
    {
      "inputs": [],
      "name": "last_completed_migration",
      "outputs": [
        {
          "internalType": "uint256",
          "name": "",
          "type": "uint256"
        }
      ],
      "stateMutability": "view",
      "type": "function"
    },
    {
      "inputs": [],
      "name": "owner",
      "outputs": [
        {
          "internalType": "address",
          "name": "",
          "type": "address"
        }
      ],
      "stateMutability": "view",
      "type": "function"
    },
    {
      "inputs": [
        {
          "internalType": "uint256",
          "name": "",
          "type": "uint256"
        }
      ],
      "name": "polls",
      "outputs": [
        {
          "internalType": "uint256",
          "name": "id",
          "type": "uint256"
        },
        {
          "internalType": "string",
          "name": "pollHash",
          "type": "string"
        },
        {
          "internalType": "address payable",
          "name": "pollOwner",
          "type": "address"
        },
        {
          "internalType": "uint256",
          "name": "price",
          "type": "uint256"
        },
        {
          "internalType": "bool",
          "name": "isForSale",
          "type": "bool"
        },
        {
          "internalType": "uint256",
          "name": "analyticsCount",
          "type": "uint256"
        }
      ],
      "stateMutability": "view",
      "type": "function"
    },
    {
      "inputs": [
        {
          "internalType": "uint256",
          "name": "_pollId",
          "type": "uint256"
        },
        {
          "internalType": "uint256",
          "name": "_newPrice",
          "type": "uint256"
        }
      ],
      "name": "resellPoll",
      "outputs": [],
      "stateMutability": "nonpayable",
      "type": "function"
    },
    {
      "inputs": [
        {
          "internalType": "uint256",
          "name": "_pollId",
          "type": "uint256"
        },
        {
          "internalType": "uint256",
          "name": "_newCount",
          "type": "uint256"
        }
      ],
      "name": "updateAnalyticsCount",
      "outputs": [],
      "stateMutability": "nonpayable",
      "type": "function"
    }
  ],
  "bytecode": "0x6080604052336000806101000a81548173ffffffffffffffffffffffffffffffffffffffff021916908373ffffffffffffffffffffffffffffffffffffffff16021790555034801561005057600080fd5b50d3801561005d57600080fd5b50d2801561006a57600080fd5b506118898061007a6000396000f3fe6080604052600436106100865760003560e01c806359fabfde1161005957806359fabfde146101b45780636be27054146101d05780638da5cb5b14610213578063ac2f007414610258578063c7449cb7146102b457610086565b806311a527461461008b5780631a8cbcaa146100d057806330a91d261461012c578063445df0ac1461016f575b600080fd5b34801561009757600080fd5b50d380156100a457600080fd5b50d280156100b157600080fd5b506100ba6102f7565b6040516100c791906112bf565b60405180910390f35b3480156100dc57600080fd5b50d380156100e957600080fd5b50d280156100f657600080fd5b50610111600480360381019061010c9190610faa565b610304565b604051610123969594939291906113b7565b60405180910390f35b34801561013857600080fd5b50d3801561014557600080fd5b50d2801561015257600080fd5b5061016d60048036038101906101689190610fd7565b6104db565b005b34801561017b57600080fd5b50d3801561018857600080fd5b50d2801561019557600080fd5b5061019e610692565b6040516101ab91906112bf565b60405180910390f35b6101ce60048036038101906101c99190610faa565b610698565b005b3480156101dc57600080fd5b50d380156101e957600080fd5b50d280156101f657600080fd5b50610211600480360381019061020c9190610fd7565b61092b565b005b34801561021f57600080fd5b50d3801561022c57600080fd5b50d2801561023957600080fd5b50610242610b0d565b60405161024f91906111a4565b60405180910390f35b34801561026457600080fd5b50d3801561027157600080fd5b50d2801561027e57600080fd5b5061029960048036038101906102949190610faa565b610b31565b6040516102ab96959493929190611303565b60405180910390f35b3480156102c057600080fd5b50d380156102cd57600080fd5b50d280156102da57600080fd5b506102f560048036038101906102f09190610f4e565b610c32565b005b6000600280549050905090565b600060606000806000806002805490508710610355576040517f08c379a000000000000000000000000000000000000000000000000000000000815260040161034c9061123f565b60405180910390fd5b60006002888154811061036b5761036a61164b565b5b90600052602060002090600602016040518060c00160405290816000820154815260200160018201805461039e9061158a565b80601f01602080910402602001604051908101604052809291908181526020018280546103ca9061158a565b80156104175780601f106103ec57610100808354040283529160200191610417565b820191906000526020600020905b8154815290600101906020018083116103fa57829003601f168201915b505050505081526020016002820160009054906101000a900473ffffffffffffffffffffffffffffffffffffffff1673ffffffffffffffffffffffffffffffffffffffff1673ffffffffffffffffffffffffffffffffffffffff168152602001600382015481526020016004820160009054906101000a900460ff161515151581526020016005820154815250509050806000015181602001518260400151836060015184608001518560a001519650965096509650965096505091939550919395565b6002805490508210610522576040517f08c379a00000000000000000000000000000000000000000000000000000000081526004016105199061123f565b60405180910390fd5b600282815481106105365761053561164b565b5b906000526020600020906006020160020160009054906101000a900473ffffffffffffffffffffffffffffffffffffffff1673ffffffffffffffffffffffffffffffffffffffff163373ffffffffffffffffffffffffffffffffffffffff1614806105ec575060008054906101000a900473ffffffffffffffffffffffffffffffffffffffff1673ffffffffffffffffffffffffffffffffffffffff163373ffffffffffffffffffffffffffffffffffffffff16145b61062b576040517f08c379a00000000000000000000000000000000000000000000000000000000081526004016106229061125f565b60405180910390fd5b80600283815481106106405761063f61164b565b5b9060005260206000209060060201600501819055507f9789c9d3602367f030d90b7cd003ef07a766c3fb09fbe6d2ddfefebdf353475b828260405161068692919061141f565b60405180910390a15050565b60015481565b600360009054906101000a900460ff16156106e8576040517f08c379a00000000000000000000000000000000000000000000000000000000081526004016106df9061129f565b60405180910390fd5b6001600360006101000a81548160ff021916908315150217905550600280549050811061074a576040517f08c379a00000000000000000000000000000000000000000000000000000000081526004016107419061123f565b60405180910390fd5b6000600282815481106107605761075f61164b565b5b906000526020600020906006020190508060040160009054906101000a900460ff166107c1576040517f08c379a00000000000000000000000000000000000000000000000000000000081526004016107b8906111bf565b60405180910390fd5b8060030154341015610808576040517f08c379a00000000000000000000000000000000000000000000000000000000081526004016107ff906111ff565b60405180910390fd5b8060020160009054906101000a900473ffffffffffffffffffffffffffffffffffffffff1673ffffffffffffffffffffffffffffffffffffffff166108fc349081150290604051600060405180830381858888f19350505050158015610872573d6000803e3d6000fd5b50338160020160006101000a81548173ffffffffffffffffffffffffffffffffffffffff021916908373ffffffffffffffffffffffffffffffffffffffff16021790555060008160040160006101000a81548160ff0219169083151502179055507f35dc00740c283c7eecb174fcd6f5c6e193ff72c1cd5d4f825b0b59f95eacbcd282336040516109049291906112da565b60405180910390a1506000600360006101000a81548160ff02191690831515021790555050565b6002805490508210610972576040517f08c379a00000000000000000000000000000000000000000000000000000000081526004016109699061123f565b60405180910390fd5b600282815481106109865761098561164b565b5b906000526020600020906006020160020160009054906101000a900473ffffffffffffffffffffffffffffffffffffffff1673ffffffffffffffffffffffffffffffffffffffff163373ffffffffffffffffffffffffffffffffffffffff1614610a25576040517f08c379a0000000000000000000000000000000000000000000000000000000008152600401610a1c906111df565b60405180910390fd5b60008111610a68576040517f08c379a0000000000000000000000000000000000000000000000000000000008152600401610a5f9061127f565b60405180910390fd5b8060028381548110610a7d57610a7c61164b565b5b906000526020600020906006020160030181905550600160028381548110610aa857610aa761164b565b5b906000526020600020906006020160040160006101000a81548160ff0219169083151502179055507f1cd995657fbb1b84ad2ad316d8e3582184aa818ad17a1edff78ab6676990bad38282604051610b0192919061141f565b60405180910390a15050565b60008054906101000a900473ffffffffffffffffffffffffffffffffffffffff1681565b60028181548110610b4157600080fd5b9060005260206000209060060201600091509050806000015490806001018054610b6a9061158a565b80601f0160208091040260200160405190810160405280929190818152602001828054610b969061158a565b8015610be35780601f10610bb857610100808354040283529160200191610be3565b820191906000526020600020905b815481529060010190602001808311610bc657829003601f168201915b5050505050908060020160009054906101000a900473ffffffffffffffffffffffffffffffffffffffff16908060030154908060040160009054906101000a900460ff16908060050154905086565b6000825111610c76576040517f08c379a0000000000000000000000000000000000000000000000000000000008152600401610c6d9061121f565b60405180910390fd5b60008111610cb9576040517f08c379a0000000000000000000000000000000000000000000000000000000008152600401610cb09061127f565b60405180910390fd5b60026040518060c0016040528060028054905081526020018481526020013373ffffffffffffffffffffffffffffffffffffffff16815260200183815260200160011515815260200160008152509080600181540180825580915050600190039060005260206000209060060201600090919091909150600082015181600001556020820151816001019080519060200190610d56929190610e26565b5060408201518160020160006101000a81548173ffffffffffffffffffffffffffffffffffffffff021916908373ffffffffffffffffffffffffffffffffffffffff1602179055506060820151816003015560808201518160040160006101000a81548160ff02191690831515021790555060a0820151816005015550507f29f758df3e81eeecf732e452ff26f333ec14ae9aa2d08ae1ce7b5af71808026b6001600280549050610e0791906114ba565b833384604051610e1a949392919061136b565b60405180910390a15050565b828054610e329061158a565b90600052602060002090601f016020900481019282610e545760008555610e9b565b82601f10610e6d57805160ff1916838001178555610e9b565b82800160010185558215610e9b579182015b82811115610e9a578251825591602001919060010190610e7f565b5b509050610ea89190610eac565b5090565b5b80821115610ec5576000816000905550600101610ead565b5090565b6000610edc610ed78461146d565b611448565b905082815260208101848484011115610ef857610ef76116ae565b5b610f03848285611548565b509392505050565b600082601f830112610f2057610f1f6116a9565b5b8135610f30848260208601610ec9565b91505092915050565b600081359050610f488161183c565b92915050565b60008060408385031215610f6557610f646116b8565b5b600083013567ffffffffffffffff811115610f8357610f826116b3565b5b610f8f85828601610f0b565b9250506020610fa085828601610f39565b9150509250929050565b600060208284031215610fc057610fbf6116b8565b5b6000610fce84828501610f39565b91505092915050565b60008060408385031215610fee57610fed6116b8565b5b6000610ffc85828601610f39565b925050602061100d85828601610f39565b9150509250929050565b61102081611500565b82525050565b61102f816114ee565b82525050565b61103e81611512565b82525050565b600061104f8261149e565b61105981856114a9565b9350611069818560208601611557565b611072816116bd565b840191505092915050565b600061108a6014836114a9565b9150611095826116ce565b602082019050919050565b60006110ad601e836114a9565b91506110b8826116f7565b602082019050919050565b60006110d06013836114a9565b91506110db82611720565b602082019050919050565b60006110f36019836114a9565b91506110fe82611749565b602082019050919050565b60006111166013836114a9565b915061112182611772565b602082019050919050565b60006111396031836114a9565b91506111448261179b565b604082019050919050565b600061115c601c836114a9565b9150611167826117ea565b602082019050919050565b600061117f601a836114a9565b915061118a82611813565b602082019050919050565b61119e8161153e565b82525050565b60006020820190506111b96000830184611026565b92915050565b600060208201905081810360008301526111d88161107d565b9050919050565b600060208201905081810360008301526111f8816110a0565b9050919050565b60006020820190508181036000830152611218816110c3565b9050919050565b60006020820190508181036000830152611238816110e6565b9050919050565b6000602082019050818103600083015261125881611109565b9050919050565b600060208201905081810360008301526112788161112c565b9050919050565b600060208201905081810360008301526112988161114f565b9050919050565b600060208201905081810360008301526112b881611172565b9050919050565b60006020820190506112d46000830184611195565b92915050565b60006040820190506112ef6000830185611195565b6112fc6020830184611026565b9392505050565b600060c0820190506113186000830189611195565b818103602083015261132a8188611044565b90506113396040830187611017565b6113466060830186611195565b6113536080830185611035565b61136060a0830184611195565b979650505050505050565b60006080820190506113806000830187611195565b81810360208301526113928186611044565b90506113a16040830185611026565b6113ae6060830184611195565b95945050505050565b600060c0820190506113cc6000830189611195565b81810360208301526113de8188611044565b90506113ed6040830187611026565b6113fa6060830186611195565b6114076080830185611035565b61141460a0830184611195565b979650505050505050565b60006040820190506114346000830185611195565b6114416020830184611195565b9392505050565b6000611452611463565b905061145e82826115bc565b919050565b6000604051905090565b600067ffffffffffffffff8211156114885761148761167a565b5b611491826116bd565b9050602081019050919050565b600081519050919050565b600082825260208201905092915050565b60006114c58261153e565b91506114d08361153e565b9250828210156114e3576114e26115ed565b5b828203905092915050565b60006114f98261151e565b9050919050565b600061150b8261151e565b9050919050565b60008115159050919050565b600073ffffffffffffffffffffffffffffffffffffffff82169050919050565b6000819050919050565b82818337600083830152505050565b60005b8381101561157557808201518184015260208101905061155a565b83811115611584576000848401525b50505050565b600060028204905060018216806115a257607f821691505b602082108114156115b6576115b561161c565b5b50919050565b6115c5826116bd565b810181811067ffffffffffffffff821117156115e4576115e361167a565b5b80604052505050565b7f4e487b7100000000000000000000000000000000000000000000000000000000600052601160045260246000fd5b7f4e487b7100000000000000000000000000000000000000000000000000000000600052602260045260246000fd5b7f4e487b7100000000000000000000000000000000000000000000000000000000600052603260045260246000fd5b7f4e487b7100000000000000000000000000000000000000000000000000000000600052604160045260246000fd5b600080fd5b600080fd5b600080fd5b600080fd5b6000601f19601f8301169050919050565b7f506f6c6c206973206e6f7420666f722073616c65000000000000000000000000600082015250565b7f4f6e6c79206f776e65722063616e20726573656c6c2074686520706f6c6c0000600082015250565b7f4e6f7420656e6f756768205452582073656e7400000000000000000000000000600082015250565b7f506f6c6c20686173682063616e6e6f7420626520656d70747900000000000000600082015250565b7f506f6c6c20646f6573206e6f7420657869737400000000000000000000000000600082015250565b7f4f6e6c792074686520706f6c6c206f776e6572206f722061646d696e2063616e60008201527f2075706461746520616e616c7974696373000000000000000000000000000000602082015250565b7f5072696365206d7573742062652067726561746572207468616e203000000000600082015250565b7f5265656e7472616e637920677561726420697320616374697665000000000000600082015250565b6118458161153e565b811461185057600080fd5b5056fea26474726f6e582212207d7a77f4a5995786340f83b3fe051642f68b37198e5a5428ec5553f9f391638964736f6c63430008060033",
  "source": "// SPDX-License-Identifier: MIT\r\npragma solidity >=0.4.22 <0.9.0;\r\n\r\ncontract InsightMarketplace {\r\n\r\n    address public owner = msg.sender;\r\n    uint public last_completed_migration;\r\n\r\n    modifier restricted() {\r\n        require(msg.sender == owner, \"This function is restricted to the contract's owner\");\r\n        _;\r\n    }\r\n\r\n    struct Poll {\r\n        uint256 id;\r\n        string pollHash;  // Hash of question + options JSON\r\n        address payable pollOwner; // Changed variable name here\r\n        uint256 price;\r\n        bool isForSale;\r\n        uint256 analyticsCount;  // Number of responses or views\r\n    }\r\n\r\n    // Array to store polls\r\n    Poll[] public polls;\r\n\r\n    // Event emitted when a poll is created\r\n    event PollCreated(uint256 id, string pollHash, address owner, uint256 price);\r\n\r\n    // Event emitted when a poll is purchased\r\n    event PollPurchased(uint256 id, address newOwner);\r\n\r\n    // Event emitted when a poll is resold\r\n    event PollResold(uint256 id, uint256 newPrice);\r\n\r\n    // Event emitted when analytics count is updated\r\n    event AnalyticsUpdated(uint256 id, uint256 newCount);\r\n\r\n    // Reentrancy guard modifier\r\n    bool internal locked;\r\n\r\n    modifier noReentrancy() {\r\n        require(!locked, \"Reentrancy guard is active\");\r\n        locked = true;\r\n        _;\r\n        locked = false;\r\n    }\r\n\r\n    // Function to create a new poll\r\n    function createPoll(\r\n        string memory _pollHash,  // Only keep pollHash as input\r\n        uint256 _price\r\n    ) public {\r\n        require(bytes(_pollHash).length > 0, \"Poll hash cannot be empty\");\r\n        require(_price > 0, \"Price must be greater than 0\");\r\n\r\n        // Creating the poll and pushing to the array\r\n        polls.push(Poll({\r\n            id: polls.length,\r\n            pollHash: _pollHash,\r\n            pollOwner: payable(msg.sender), // Use new variable name here\r\n            price: _price,\r\n            isForSale: true,\r\n            analyticsCount: 0  // Initialize analytics count to 0\r\n        }));\r\n\r\n        // Emit event after poll creation\r\n        emit PollCreated(polls.length - 1, _pollHash, msg.sender, _price);\r\n    }\r\n\r\n    // Function to buy a poll\r\n    function buyPoll(uint256 _pollId) public payable noReentrancy {\r\n        require(_pollId < polls.length, \"Poll does not exist\");\r\n        Poll storage poll = polls[_pollId];\r\n        require(poll.isForSale, \"Poll is not for sale\");\r\n        require(msg.value >= poll.price, \"Not enough TRX sent\");\r\n\r\n        // Transfer ownership and funds\r\n        poll.pollOwner.transfer(msg.value); // Use new variable name here\r\n        poll.pollOwner = payable(msg.sender); // Use new variable name here\r\n        poll.isForSale = false;\r\n\r\n        // Emit the purchase event\r\n        emit PollPurchased(_pollId, msg.sender);\r\n    }\r\n\r\n    // Function to get the number of polls\r\n    function getPollCount() public view returns (uint256) {\r\n        return polls.length;\r\n    }\r\n\r\n    // Function to get details of a specific poll by ID\r\n    function getPoll(uint256 _pollId) public view returns (\r\n        uint256 id,\r\n        string memory pollHash,\r\n        address pollOwner, // Changed variable name here\r\n        uint256 price,\r\n        bool isForSale,\r\n        uint256 analyticsCount\r\n    ) {\r\n        require(_pollId < polls.length, \"Poll does not exist\");\r\n        Poll memory poll = polls[_pollId];\r\n        return (\r\n            poll.id,\r\n            poll.pollHash,\r\n            poll.pollOwner, // Use new variable name here\r\n            poll.price,\r\n            poll.isForSale,\r\n            poll.analyticsCount\r\n        );\r\n    }\r\n\r\n    // Function to resell a poll\r\n    function resellPoll(uint256 _pollId, uint256 _newPrice) public {\r\n        require(_pollId < polls.length, \"Poll does not exist\");\r\n        require(msg.sender == polls[_pollId].pollOwner, \"Only owner can resell the poll\"); // Use new variable name here\r\n        require(_newPrice > 0, \"Price must be greater than 0\");\r\n\r\n        // Set the new price and mark it for sale\r\n        polls[_pollId].price = _newPrice;\r\n        polls[_pollId].isForSale = true;\r\n\r\n        // Emit the resell event\r\n        emit PollResold(_pollId, _newPrice);\r\n    }\r\n\r\n    // Function to update analytics count (restricted to owner or authorized parties)\r\n    function updateAnalyticsCount(uint256 _pollId, uint256 _newCount) public {\r\n        require(_pollId < polls.length, \"Poll does not exist\");\r\n        require(msg.sender == polls[_pollId].pollOwner || msg.sender == owner, \"Only the poll owner or admin can update analytics\");\r\n\r\n        // Update analytics count\r\n        polls[_pollId].analyticsCount = _newCount;\r\n\r\n        // Emit the analytics update event\r\n        emit AnalyticsUpdated(_pollId, _newCount);\r\n    }\r\n}\r\n",
  "sourcePath": "C:/Hasi/insightX/tronbox/contracts/InsightMarketPlace.sol",
  "compiler": {
    "name": "solc",
    "version": "0.8.6+commit.0e36fba0.mod.Emscripten.clang"
  },
  "schemaVersion": "2.0.1",
  "updatedAt": "2024-10-06T14:50:49.818Z"
}